:020000040100F9
:101000000000012001110001A5130001B31300012C
:10101000C1130001CF130001DD1300010000000027
:10102000000000000000000000000000EB130001C1
:10103000F91300010000000007140001151400015D
:1010400023140001311400013F1400014D1400016C
:101050005B14000135150001CD1500016914000174
:10106000771400018514000193140001A1140001FC
:10107000AF140001BD140001B11100010000000017
:101080000000000000000000000000000000000060
:101090000000000000000000000000000000000050
:1010A0000000000000000000000000000000000040
:1010B0000000000000000000000000000000000030
:1010C0000000000000000000000000000000000020
:1010D0000000000000000000000000000000000010
:1010E0000000000000000000000000000000000000
:1010F00000000000000000000000000000000000F0
:1011000080B582B000AF164B7B60164B3B60164B30
:10111000164A9A607A683B689A420ED009E07B686A
:101120001A683B681A607B6804337B603B68043351
:101130003B603B680E4A9342F1D30E4B3B6005E0A7
:101140003B6800221A603B6804333B603B680A4AF4
:101150009342F5D300F0BAF900BF0837BD4680BD11
:10116000C41800010000002000ED00E000100001A4
:1011700000000020000000200C04002080B483B098
:1011800000AF0346FB71FB7903F01F03012202FA53
:1011900003F1064A97F907305B09603342F82310E0
:1011A00000BF0C37BD465DF8047B704700E100E0EE
:1011B00080B500AF134B1B69124A23F00103136182
:1011C000104B1B6903F00103002B03D00D4B1122C0
:1011D0001A6002E00B4B00221A600A4BAB221A6025
:1011E00041F2883000F0AEFA074BD3F80C38064BCA
:1011F0004FF6FF72C3F80C280E20FFF7BFFF00BFA9
:1012000080BD00BF0060014000D0014080B400AF4D
:10121000044BDB681B0A03F007031846BD465DF864
:10122000047B704700ED00E080B489B000AFF86047
:10123000B9607A60FB6803F00703FB61FB69C3F1E7
:101240000703032B28BF0323BB61FB690333062B72
:1012500002D9FB69043B00E000237B610122BB69EA
:1012600002FA03F3013B1A46BB681A407B699A40B5
:1012700001217B6901FA03F3013B19467B680B40AE
:10128000134318462437BD465DF8047B70470000C1
:1012900080B483B000AF03463960FB7197F9073023
:1012A000002B0BDA3B68DAB20C49FB7903F00F0331
:1012B000043B5201D2B20B441A7609E03B68DAB221
:1012C000074997F907305201D2B20B4483F8002343
:1012D00000BF0C37BD465DF8047B704700ED00E0B1
:1012E00000E100E080B483B000AF0346FB71FB79FE
:1012F00003F01F03012202FA03F1064A97F90730AF
:101300005B0942F8231000BF0C37BD465DF8047B33
:10131000704700BF00E100E080B485B000AF7860A6
:101320007B6803F00703FB600C4BDB68BB60BA68AB
:101330004FF6FF031340BB60FB681A02BB68134300
:1013400043F0BF6343F40033BB60044ABB68D3601F
:1013500000BF1437BD465DF8047B704700ED00E028
:1013600080B586B000AF0346B9607A60FB73062093
:10137000FFF7D2FFFFF74AFF78617A68B9687869AA
:10138000FFF752FF386197F90F3039691846FFF7B8
:101390007FFF97F90F301846FFF7A4FF00BF1837FB
:1013A000BD4680BD80B400AF00BFBD465DF8047B84
:1013B000704780B400AF00BFBD465DF8047B704746
:1013C00080B400AF00BFBD465DF8047B704780B4B9
:1013D00000AF00BFBD465DF8047B704780B400AF2E
:1013E00000BFBD465DF8047B704780B400AF00BF0E
:1013F000BD465DF8047B704780B400AF00BFBD46BA
:101400005DF8047B704780B400AF00BFBD465DF857
:10141000047B704780B400AF00BFBD465DF8047B1D
:10142000704780B400AF00BFBD465DF8047B7047D5
:1014300080B400AF00BFBD465DF8047B704780B448
:1014400000AF00BFBD465DF8047B704780B400AFBD
:1014500000BFBD465DF8047B704780B400AF00BF9D
:10146000BD465DF8047B704780B400AF00BFBD4649
:101470005DF8047B704780B400AF00BFBD465DF8E7
:10148000047B704780B400AF00BFBD465DF8047BAD
:10149000704780B400AF00BFBD465DF8047B704765
:1014A00080B400AF00BFBD465DF8047B704780B4D8
:1014B00000AF00BFBD465DF8047B704780B400AF4D
:1014C00000BFBD465DF8047B7047000080B582B068
:1014D00000AF00F0B5F8012200210520FFF740FF22
:1014E000012201210620FFF73BFF0F4800F05EF9C3
:1014F0000E4800F05BF90E4BD3F80834002BFAD0FD
:10150000094B31221A600A4800F0EFF803467B606D
:1015100000BF064B9B6903F01003002BF9D0034A70
:101520007B681360E7E700BF006001400070014086
:101530000000002080B582B000AF224B9B6803F012
:101540000F030C2B22D00C2B33D8022B14D0042BDE
:101550002FD11C4B46221A6007E01A4B1B68FB7107
:10156000FB791946184800F08DF8164800F00AF982
:101570000346002BF1D120E0124B47221A60114B99
:101580005B68104A23F00203536016E00D4B5122B2
:101590001A6007E00B4B1B68FB71FB7919460A4880
:1015A00000F070F8074800F0EDF80346002BF1D189
:1015B00003E0044B52221A6000BF00BF0837BD464B
:1015C00080BD00BF006001400000002080B582B0F7
:1015D00000AF194B9B6803F00F03042B02D00C2BB8
:1015E00011D021E0154B37221A6005E0124B1B6821
:1015F000FB71124AFB7913600F4800F0C3F80346F1
:10160000002BF3D114E00D4B38221A6005E00A4B91
:101610001B68FB71094AFB791360074800F0B2F8B8
:101620000346002BF3D103E0044B99221A6000BF5C
:1016300000BF0837BD4680BD00700140006001401A
:1016400080B400AF0C4B5A680B490C4B13434B60F2
:10165000094BDB68084A43F4601343F00303D3608B
:10166000054B1A680449064B13430B6000BFBD4687
:101670005DF8047B704700BF00F0014003003104B7
:101680005A390F2080B483B000AF78600B46FB70EE
:101690007B68D3F800347A68F978D1547B68D3F842
:1016A00000340133C3F309027B68C3F800247B686C
:1016B000D3F808345A1C7B68C3F808247B68D3F835
:1016C00000247B68D3F804349A4208D17B68D3F8AD
:1016D00004340133C3F309027B68C3F8042400BF58
:1016E0000C37BD465DF8047B704780B485B000AF11
:1016F00078604FF0FF33FB607B68D3F804247B688D
:10170000D3F800349A4215D07B68D3F804347A6851
:10171000D35CFB607B68D3F808345A1E7B68C3F83F
:1017200008247B68D3F804340133C3F309027B68CF
:10173000C3F80424FB6818461437BD465DF8047BE3
:101740007047000080B483B000AF78600B4B062276
:101750009A600B4B1B6B7A6802FB03F3074A6433F6
:101760001360064B9B68054A43F00103936000BF7A
:101770000C37BD465DF8047B704700BF0030014068
:1017800000F0014080B483B000AF78607B68DB6F0D
:1017900003F00803002B01D0012300E000231846CA
:1017A0000C37BD465DF8047B7047000080B487B0FD
:1017B00000AF78604FF4E1337B613D4B3D4A1A60E6
:1017C0003D4B3E4A1A607B68DB6823F080027B68F1
:1017D000DA607B685B6823F080027B685A607B6814
:1017E000D3F8983023F001027B68C3F898207B6817
:1017F000D3F8943023F001027B68C3F894207B680F
:101800000122C3F89C207B680222C3F8A0207B68D9
:10181000D3F8983043F001027B68C3F89820284B36
:101820001B6B4FF47A7202FB03F33B617B68DB684E
:1018300043F080027B68DA603B691A097B695B08C8
:101840001A447B69B2FBF3F3FB60FB68DAB27B6896
:101850001A60FB681B0ADAB27B685A607B68DB6837
:1018600023F080027B68DA607B680322DA607B68A1
:10187000D3F8983043F001027B68C3F898207B6866
:101880001B6923F020027B681A617B68DB6823F008
:1018900080027B68DA607B685B6843F001027B68EA
:1018A0005A6000BF1C37BD465DF8047B704700BF1F
:1018B00080D101405055555584D10140555555FFB3
:0418C00000F00140F3
:0400000501001000E6
:00000001FF
