:020000040800F2
:1000000000000120050400080000000000000000BE
:1000100000000000000000000000000000000000E0
:1000200000000000000000000000000000000000D0
:1000300000000000000000000000000000000000C0
:1000400000000000000000000000000000000000B0
:100400000000000008B5154A154B9A4211D01A4653
:10041000144B9A420DD2114A114B1348C01A20F0C6
:1004200003000430184452F8041B43F8041B8342B1
:10043000F9D10E4A0E4B9A420BD213460D4AD21AEC
:1004400022F0030204321A44002143F8041B9A42AA
:10045000FBD100F0F3F800F077F808BD340700088E
:100460000000002000000020FFFFFF1F0000002010
:1004700000000020FFFFFF1F1E4A936943F008039E
:1004800093611D4BD3F8002C22F00F02C3F8002C0F
:10049000D3F8002C42F00102C3F8002CD3F8002C52
:1004A00022F0F002C3F8002CD3F8002C42F0100226
:1004B000C3F8002CD3F8002C22F47002C3F8002CEF
:1004C000D3F8002C42F48012C3F8002CD3F80C2C83
:1004D00042F00102C3F80C2CD3F80C2C42F020029D
:1004E000C3F80C2CD3F80C2C42F00202C3F80C2CED
:1004F000704700BF0010024000000140094A9369A4
:1005000043F004039361084BD3F8002822F00F0254
:10051000C3F80028D3F8002842F00402C3F80028EA
:10052000704700BF001002400000014010B5054CAC
:10053000238813F0200FFBD0A088C0F3080000F040
:1005400071F8F5E70038014008B5064AD36943F071
:100550001003D361FFF790FFFFF7D0FF00F004F81E
:10056000FFF7E4FF001002402D4B9A6942F00402AD
:100570009A619A6942F480429A61A3F58833D3F86C
:10058000042822F0F002C3F80428D3F8042822F447
:100590007062C3F80428D3F8042842F0B002C3F80C
:1005A0000428D3F8042842F48062C3F8042803F531
:1005B00060531A8A22F440521204120C1A821A8AC8
:1005C00092B21A829A8992B222F4B05222F00C02AC
:1005D00092B29A819A8992B29A819A8992B29A81B8
:1005E0009A8992B242F008029A819A8992B242F0B4
:1005F00004029A819A8A22F440721204120C9A829E
:100600009A8A92B29A829A8A92B29A824FF40B7222
:100610001A819A8992B242F400529A81704700BFBF
:1006200000100240C0B2044B98801A46138813F0A1
:10063000800FFBD0704700BF003801403A4B1A686A
:1006400042F001021A605968384A0A405A601A6832
:1006500022F0847222F480321A601A6822F4802216
:100660001A605A6822F4FE025A604FF41F029A6020
:100670001A6842F001021A604FF6FF732A490A68AD
:1006800012F0020F02D1013BF9D17047284B1A68D2
:1006900042F010021A601A6822F003021A601A6807
:1006A00042F002021A60A3F580535A6822F0F00269
:1006B0005A605A685A605A6822F460525A605A68FE
:1006C0005A605A6822F4E0625A605A6842F48062C2
:1006D0005A601A6822F080721A605A6822F47C12FA
:1006E0005A605A6822F480325A605A6842F46012A2
:1006F0005A601A6842F080721A60FF230A490A6839
:1007000012F0007F01D1013BF9D1074B5A6822F06A
:1007100003025A605A6842F002025A600F23024AEA
:100720005168013BFCD17047001002400000FFF00F
:040730000020024063
:0400000508000000EF
:00000001FF
