:020000040800F2
:1000000000000120050400080000000000000000BE
:1000100000000000000000000000000000000000E0
:1000200000000000000000000000000000000000D0
:1000300000000000000000000000000000000000C0
:1000400000000000000000000000000000000000B0
:100400000000000008B5154A154B9A4211D01A4653
:10041000144B9A420DD2114A114B1348C01A20F0C6
:1004200003000430184452F8041B43F8041B8342B1
:10043000F9D10E4A0E4B9A420BD213460D4AD21AEC
:1004400022F0030204321A44002143F8041B9A42AA
:10045000FBD100F05DF900F0ABF808BD080C000816
:100460000000002000000020FFFFFF1F0000002010
:1004700000080020FF07002008B5024B5B68984782
:1004800008BD00BF00A000081E4A936943F008039E
:1004900093611D4BD3F8002C22F00F02C3F8002CFF
:1004A000D3F8002C42F00102C3F8002CD3F8002C42
:1004B00022F0F002C3F8002CD3F8002C42F0100216
:1004C000C3F8002CD3F8002C22F47002C3F8002CDF
:1004D000D3F8002C42F48012C3F8002CD3F80C2C73
:1004E00042F00102C3F80C2CD3F80C2C42F020028D
:1004F000C3F80C2CD3F80C2C42F00202C3F80C2CDD
:10050000704700BF0010024000000140094A936993
:1005100043F004039361084BD3F8002822F00F0244
:10052000C3F80028D3F8002842F00402C3F80028DA
:10053000704700BF0010024000000140074BD3F895
:10054000083813F0010F07D0044AD2F8083813F026
:10055000010FFAD1012070470020704700000140D0
:100560000A4B4AF227029A624000D8625A6942F066
:1005700001025A6100221A611A6842F008021A60E8
:100580001A6842F001021A60704700BF0010004074
:10059000064B1B6913F0010F06D0044A136923F0C0
:1005A00001031361012070470020704700100040D4
:1005B00038B5204AD36943F01003D361FFF764FFD5
:1005C000FFF7A4FF00F03AF84FF4FA60FFF7C8FF16
:1005D0009924194D204600F08FF8FFF7D9FFF0B9A4
:1005E000FFF7ACFF0028F5D0D5F80C3C43F0010331
:1005F000C5F80C3CD5F80C3C43F02003C5F80C3C86
:10060000D5F80C3C43F00203C5F80C3CD5F80C3C83
:1006100023F02003C5F80C3C00F0EAF9DAE7064ABB
:10062000D2F80C3C23F00203C2F80C3CFFF724FF85
:10063000002038BD00100240000001402D4B9A6997
:1006400042F004029A619A6942F480429A61A3F5E9
:100650008833D3F8042822F0F002C3F80428D3F832
:10066000042822F47062C3F80428D3F8042842F066
:10067000B002C3F80428D3F8042842F48062C3F817
:10068000042803F560531A8A22F440521204120C13
:100690001A821A8A92B21A829A8992B222F4B052BB
:1006A00022F00C0292B29A819A8992B29A819A8926
:1006B00092B29A819A8992B242F008029A819A89FA
:1006C00092B242F004029A819A8A22F44072120491
:1006D000120C9A829A8A92B29A829A8A92B29A82D8
:1006E00040F271221A819A8992B242F400529A81A0
:1006F000704700BF00100240C0B2044B98801A46F9
:10070000138813F0800FFBD0704700BF0038014002
:1007100082B000230193009303F1804303F5043377
:100720001A6842F001021A6059684E4A0A405A603B
:100730001A6822F0847222F480321A601A6822F455
:1007400080221A605A6822F4FE025A604FF41F0297
:100750009A601A6822F480321A601A6822F48022A1
:100760001A601A6842F480321A601A464FF6FF7116
:10077000136803F400330093019B01330193009B42
:1007800013B9019B8B42F3D1009B002B68D0364BF1
:100790001A6842F010021A601A6822F003021A6006
:1007A0001A6842F002021A60A3F580535A6822F4D4
:1007B00000325A605A6822F0F0025A605A685A6051
:1007C0005A6822F460525A605A685A605A6822F491
:1007D000E0625A605A6842F480625A601A6822F0F5
:1007E00080721A605A6822F47C125A605A6822F4A5
:1007F00000325A605A6842F480325A605A6842F4B1
:10080000E0125A601A6842F080721A600023019365
:100810000093164A136803F000730093019B0133A1
:100820000193009B13B9019BFF2BF3D10F4B5A6827
:1008300022F003025A605A6842F002025A60002312
:1008400001930093094A536803F00C030093019B42
:1008500001330193009B062B02D0019B0F2BF2D199
:1008600002B070470000FFF000200240001002407C
:100870002DE9F04383B004460D461646002300934D
:1008800040F6B830FFF76CFE009B832B2FDC564FF1
:100890004FF0150940F6B8380BE03168534800F0C6
:1008A00055F900208CE0FFF773FEB0B9009B832B55
:1008B0001DDC019B092B00F381803B8813F0200F86
:1008C000F1D0BA88009BE254002301932378042BD3
:1008D000E3D0009B01330093E8E74846FFF70CFFA5
:1008E000019B013301934046FFF73AFEDEE7237890
:1008F000012B68D16178A3784B40FF2B66D1A942C8
:1009000067D104F1020C04F1820200231CF801EF0C
:100910007344DBB29445F9D194F883209A425BD1B9
:1009200011F00F0F2DD100230093009B7F2B0DDCC6
:100930002E49009A009B2244D2780B4483F88027EA
:10094000009B01330093009B7F2BF2DD3168274829
:1009500000F0FCF8336803F5006333600023009374
:10096000009BB3F5006F3ADA2049FF22009BCA547E
:10097000009B01330093009BB3F5006FF6DB012071
:100980001EE000230093009B7F2B2ADC6B4205F0C6
:100990000F0503F00F0358BF5D42013D134B03EBFE
:1009A000C515009B009A2344DB78AB54009B0133B0
:1009B0000093009B7F2BF4DD012001E04FF0FF301E
:1009C00003B0BDE8F0836FF00100F9E76FF00200BB
:1009D000F6E76FF00400F3E76FF00300F0E70120A3
:1009E000EEE70120ECE700BF0038014000000020E6
:1009F00030B5ADF5CE5D87B02D4B03932D4A531E18
:100A000002F2FF72FF2103F8011F9342FBD1012480
:100A1000032504AB019308E00124032505E006202B
:100A2000FFF76AFE0134E4B2032503AA21460198C8
:100A3000FFF71EFF0530062833D801A353F820F036
:100A4000970A00088F0A0008870A00087F0A000832
:100A50006B0A00085D0A00081F0A00080620FFF75D
:100A60004BFE0DF5CE5D07B030BD013D1520FFF703
:100A700043FE002DD0D0B5F1FF3FD6D1F1E71520D0
:100A8000FFF73AFED0E71520FFF736FECCE715203A
:100A9000FFF732FEC8E71820FFF72EFE01240325DA
:100AA000C3E71820FFF728FE01240325BDE700BF98
:100AB00000A0000800000020034B044A5A6002F125
:100AC00088325A60704700BF00200240230167450A
:100AD000024A136943F0800313617047002002400B
:100AE000064BDA6842F02002DA60DA6842F010025F
:100AF000DA60DA6842F00402DA60704700200240EF
:100B0000114BDB6813F0010F1BD04FF400530E4A5A
:100B10004FF0000C06E06046D16811F0010F11D0D3
:100B2000013B0DD0D06810F00100F4D1D16811F074
:100B3000040FF1D1D06880F01000C0F30010EBE793
:100B400070470120704700BF002002402DE9F047A8
:100B500006468946FFF7B0FFFFF7C2FFFFF7D0FF59
:100B6000012837D0FFF7CCFF01281ED109F5006A14
:100B70004C46A6EB090707F10108224D18F804209E
:100B80003B5D43EA02232A6942F001022A6124F80C
:100B9000023BFFF7B5FF2B6923F00103DB04DB0CFD
:100BA0002B61544501D00128E8D0FFF791FF09F5EA
:100BB00000654B46A6EB0906701C198889B2C45C17
:100BC000F25C42EA0422914218D10233AB42F4D1E2
:100BD000002014E00B4C236943F002032361C4F8A6
:100BE0001490236943F040032361FFF789FF2369D1
:100BF00023F00203DB04DB0C2361B3E70120BDE833
:080C0000F08700BF0020024054
:0400000508000000EF
:00000001FF
